:100000000C94B5000C94D2000C94D2000C94D20045
:100010000C94D2000C94D2000C94D2000C94D20018
:100020000C94D2000C94D2000C94D2000C94D20008
:100030000C94D2000C94D2000C94D2000C94D200F8
:100040000C94D2000C94D2000C94F7000C94D200C3
:100050000C94D2000C94D2000C94D2000C94D200D8
:100060000C94D2000C94D2006E616E00696E660032
:1000700000407A10F35A00A0724E18090010A5D45F
:10008000E80000E87648170000E40B54020000CABC
:100090009A3B000000E1F505000080969800000002
:1000A00040420F000000A086010000001027000061
:1000B0000000E803000000006400000000000A00E7
:1000C000000000000100000000002C76D888DC67EA
:1000D0004F0823DFC1DFAE59E1B1B796E5E3E45342
:1000E000C63AE651997696E8E6C28426EB898C9B5F
:1000F00062ED407C6FFCEFBC9C9F40F2BAA56FA5FF
:10010000F490055A2AF75C936B6CF9676DC11BFC80
:10011000E0E40D47FEF520E6B500D0ED902E03009B
:10012000943577050080841E080000204E0A0000E8
:1001300000C80C333333330F986E12831141EF8DA7
:100140002114893BE65516CFFEE6DB18D1844B38E7
:100150001BF77C1D901DA4BBE424203284725E2218
:100160008100C9F124ECA1E53D2711241FBECFEF8A
:10017000D8E0DEBFCDBF12E0A0E0B1E0E6E3F1E2FF
:1001800002C005900D92A030B107D9F713E0A0E0AE
:10019000B2E001C01D92A033B107E1F70E9421082F
:1001A0000C9499100C940000FC01DB0171836083B6
:1001B000438311962C91119781E090E002C0880F43
:1001C000991F4A95E2F78095822311968C93119797
:1001D0000895FC01A081B1812C9130E0038002C020
:1001E000359527950A94E2F7822F817008951F9222
:1001F0000F920FB60F9211242F933F934F935F935B
:100200006F937F938F939F93AF93BF93EF93FF93DE
:10021000CF93DF9300D0CDB7DEB78091C600809337
:10022000FF028091FF02883329F488E093E00E9466
:100230002B0408C08091FF028233A1F488E093E090
:100240000E943E048FEF93ECA9E081509040A040C3
:10025000E1F700C0000088E093E00E9418041092CB
:10026000FF023EC08091FF02843329F488E093E0CE
:100270000E94510408C08091FF02863361F488E037
:1002800093E00E9464048FE792E0AAE081509040DE
:10029000A040E1F7DECF8091FF02873321F484E2B2
:1002A00093E061E007C08091FF02893331F484E27A
:1002B00093E060E00E948A0613C08091FF028D30B7
:1002C00019F4109200020CC01A8219828091FF0268
:1002D000898380E092E0BE016F5F7F4F0E94CE0F66
:1002E0000F900F90DF91CF91FF91EF91BF91AF9160
:1002F0009F918F917F916F915F914F913F912F913E
:100300000F900FBE0F901F90189520E030E008C0AE
:10031000EFE9FFE03197F1F700C000002F5F3F4F9A
:1003200028173907ACF3089520E030E006C045E017
:100330004A95F1F700002F5F3F4F28173907BCF3AC
:10034000089580937C0087ED80937A0080917A00F5
:1003500084FFFCCF8091780090E040917900342FA9
:1003600020E0822B932B0895640F751F21E06817FE
:1003700079070CF020E0822F08950E94D4090E9492
:100380003B0A462F572F682F792FCB01BA010895CA
:10039000CF93DF93EB018230910521F183309105FA
:1003A0003CF4009781F08130910509F06FC013C0D3
:1003B0008430910581F184309105CCF08530910530
:1003C00009F064C02DC08FEF91EEA4E08150904001
:1003D000A040E1F759C088E093E00E94510484E313
:1003E00093E00BC088E093E00E94510404C088E0D1
:1003F00093E00E9464048AE991E00E94850188E00C
:1004000093E00E9418048FEF90E7A2E081509040A3
:10041000A040E1F739C088E093E00E94510404C095
:1004200088E093E00E9464048FEF94E6A4E081509A
:100430009040A040E1F700C0000088E093E00E94F7
:10044000180488E093E00E942B0424E630E02C1B83
:100450003D0B229FC001239F900D329F900D1124D0
:1004600064E170E00E947F0ECB018C599F4F0E9487
:10047000850188E093E00E9418048FEF96E7A1E0E1
:1004800081509040A040E1F700C00000DF91CF9183
:1004900008950F931F93CF93DF93FC01DB018A0133
:1004A000208131814481558162817381211531051B
:1004B00091F44115510579F46115710561F4808558
:1004C0009185009741F486819781009721F41196D8
:1004D0001C921E9288C0EA01E296C217D3070CF064
:1004E0006CC0CB01C296821793070CF066C0808562
:1004F0009185C296821793070CF05FC08681978121
:10050000C296821793070CF058C081E090E051C06A
:1005100082819381C296841795070CF055C080851F
:100520009185C296841795070CF04EC086819781FD
:10053000C296841795070CF047C01FC0C217D30797
:100540000CF048C080859185C296821793070CF005
:1005500041C086819781C29682179307DCF527C038
:10056000828593858932910540F084E090E0119670
:100570009C938E938085918512C082E090E019C093
:100580002817390780F5828593858932910578F09F
:1005900085E090E011969C938E93868197816AE026
:1005A00070E00E946B0EF801718360831CC083E0D1
:1005B00090E011969C938E9316C0B9016E5C7F4FAC
:1005C000641775070CF4A4CF228133816217730777
:1005D0000CF4B4CF208531858681978182179307EB
:1005E00008F4BECFCDCFDF91CF911F910F91089529
:1005F0008F92AF92BF92CF92EF92FF920F93CF93D1
:10060000DF93CDB7DEB7DC016C9311967C93119725
:1006100013963C932E9312971596FC92EE92149794
:100620001796BC92AE92169718964C9318971996F7
:100630000C9319971A96CC921A971B968C921B972B
:10064000FB01529121E030E0C90102C0880F991FDF
:100650004A95E2F7582B50831296ED91FC9113972F
:100660004291C90119960C90199702C0880F991FE1
:100670000A94E2F7482B40831496ED91FC9115976C
:100680004291C9011A960C901A9702C0880F991FBF
:100690000A94E2F7482B40831696ED91FC91179748
:1006A00082911B960C901B9702C0220F331F0A9455
:1006B000E2F7822B8083DF91CF910F91FF90EF9033
:1006C000CF90BF90AF908F900895FC016115710598
:1006D00009F054C04130510501F14230510599F102
:1006E0004115510509F0A3C0A081B1814C9121E0D1
:1006F00030E0C901008402C0880F991F0A94E2F714
:10070000809584238C93A281B3818C91018402C053
:10071000220F331F0A94E2F753C0A081B1812C91BC
:10072000CA01008402C0880F991F0A94E2F7282B9F
:100730002C93A281B3818C91018402C0440F551F78
:100740000A94E2F756C0A081B1814C9121E030E0DB
:10075000C901008402C0880F991F0A94E2F78095AE
:1007600084238C93A281B3818C91018402C0220FD7
:10077000331F0A94E2F7822B8C9308954130510580
:1007800019F142305105C9F14115510509F04FC029
:10079000A481B5814C9121E030E0C901028402C0FE
:1007A000880F991F0A94E2F7809584238C93A68181
:1007B000B7818C91038402C0220F331F0A94E2F7A1
:1007C000209528232C930895A481B5812C91CA01EA
:1007D000028402C0880F991F0A94E2F7282B2C93F9
:1007E000A681B7818C91038402C0440F551F0A94DF
:1007F000E2F7409548234C930895A481B5814C912C
:1008000021E030E0C901028402C0880F991F0A94D8
:10081000E2F7809584238C93A681B7818C91038421
:1008200002C0220F331F0A94E2F7822B8C930895A3
:10083000CF93DF93EC0160E070E040E050E00E9475
:100840006503CE0161E070E040E050E00E94650386
:10085000DF91CF910895CF93DF93EC0160E070E0DA
:1008600041E050E00E946503CE0161E070E041E0AC
:1008700050E00E946503DF91CF910895CF93DF93FD
:10088000EC0160E070E042E050E00E946503CE01C0
:1008900061E070E042E050E00E946503DF91CF919B
:1008A0000895CF93DF93EC0160E070E041E050E009
:1008B0000E946503CE0161E070E042E050E00E94DA
:1008C0006503DF91CF910895CF93DF93EC0160E052
:1008D00070E042E050E00E946503CE0161E070E00C
:1008E00041E050E00E946503DF91CF910895CF93DE
:1008F000DF93DC011396ED91FC91149720811596FE
:100900003C91159781E090E002C0880F991F3A95BD
:10091000E2F780958223808348E050E021E030E0D8
:10092000ED91FC911197708112968C911297E901CB
:1009300002C0CC0FDD1F8A95E2F7CE0167FF03C02E
:100940007C2B708303C0809587238083660F13966A
:10095000ED91FC911497708115968C911597E90192
:1009600002C0CC0FDD1F8A95E2F77C2B70831396B3
:10097000ED91FC911497708115968C911597E90172
:1009800002C0CC0FDD1F8A95E2F7CE018095872348
:1009900080834150504009F0C3CFDF91CF9108953B
:1009A000FC01A681B7814C91808521E030E0B9013E
:1009B00002C0660F771F8A95E2F7462B4C9387E0BB
:1009C00097E00197F1F700C00000A681B7818C91F4
:1009D000908502C0220F331F9A95E2F720952823B5
:1009E0002C930895DC01ED91FC91119740811296B2
:1009F0005C9121E030E002C0220F331F5A95E2F7EC
:100A00002095242320830E94D004B5EDBA95F1F7F8
:100A100000000895DC01ED91FC9111974081129640
:100A20005C9121E030E002C0220F331F5A95E2F7BB
:100A3000422B40830E94D004B5EDBA95F1F7000037
:100A40000895CF93DF93EC01198662E00E9477044A
:100A5000CE010E94F204DF91CF910895CF93DF93EE
:100A6000EC016987460F642F0E947704CE010E9433
:100A7000F204DF91CF910895CF93DF93EC01E62F3D
:100A8000E150E33028F4F0E0EC53FE4F808101C0E8
:100A900080E06987682F6058CE010E947704CE01FC
:100AA0000E94F204DF91CF910895CF93DF93EC0180
:100AB0006A3049F46985633010F060E001C06F5F0F
:100AC0000E943C0505C00E947704CE010E940A05E1
:100AD000DF91CF9108950F931F93CF93DF938C01F4
:100AE000EB0103C0C8010E94550569916623D1F747
:100AF000DF91CF911F910F910895CF93DF93CDB7E1
:100B0000DEB7C058D0400FB6F894DEBF0FBECDBFE1
:100B10009E0127573F4FCE0101966FE770E0C957FE
:100B2000DF4F48815981C758D0400E941010CB57E1
:100B3000DF4F88819981C558D040BE016F5F7F4FDC
:100B40000E946B05C058DF4F0FB6F894DEBF0FBE92
:100B5000CDBFDF91CF910895CF93DF93EC0119863C
:100B600061E00E947704CE010E94F204DF91CF91F0
:100B70000895CF93DF93EC0119868FEF99EF0197DA
:100B8000F1F700C00000CE0160E30E947704CE01BF
:100B90000E94F2048FE19EE40197F1F700C000008B
:100BA000CE0160E30E947704CE010E94F2048FED33
:100BB00091E00197F1F700C00000CE0160E30E94D0
:100BC0007704CE010E94F2048FED91E00197F1F7D6
:100BD00000C00000CE0168E30E947704CE010E94AD
:100BE000F204CE0168E00E947704CE010E94F20474
:100BF000CE0161E00E947704CE010E94F2048FE3EF
:100C00009FE10197F1F700C00000CE0166E00E946D
:100C10007704CE010E94F204CE016CE00E947704BA
:100C2000CE010E94F204DF91CF910895CF92EF920E
:100C3000FF920F93FC01DB01718360834283348355
:100C400023830583F782E682C0864C91828121E06E
:100C500030E0B90102C0660F771F8A95E2F7CB0139
:100C6000809548234C93A381B4814C918581B9012F
:100C700002C0660F771F8A95E2F7CB018095842327
:100C80008C93A681B7814C918085B90102C0660F13
:100C9000771F8A95E2F7CB01809584238C93A081FE
:100CA000B1814E918281B90102C0660F771F8A958A
:100CB000E2F7462B4C93A381B4814E918581B90113
:100CC00002C0660F771F8A95E2F7462B4C93A681E8
:100CD000B7818E91908502C0220F331F9A95E2F75B
:100CE000822B8C93CF010E94B9050F91FF90EF905A
:100CF000CF900895FC01628373834583FB012291A9
:100D000081E090E002C0880F991F4A95E2F7282BF6
:100D100020830895FC016483A281B38135812C91E5
:100D200081E090E002C0880F991F3A95E2F76623B0
:100D300019F0282B2C930895809582238C93089585
:100D400061E0FC012481621B0E948A060895FF92E3
:100D50000F931F93CF93DF93EC01F22E7983688377
:100D60005B834A83FB01EE0FFF1FE60FF71FEE0FB9
:100D7000FF1FEE0FFF1FE951FE4FA281B381FB0160
:100D800014E0EE0FFF1F1A95E1F7E953FE4F01E063
:100D900010E09801008402C0220F331F0A94E2F78A
:100DA000C801068002C0880F991F0A94E2F7822BBF
:100DB0008C9388819981FC01EE0FFF1FE80FF91FCA
:100DC000EE0FFF1FEE0FFF1FE951FE4FA481B5810B
:100DD000FC0124E0EE0FFF1F2A95E1F7E953FE4FD7
:100DE0009801048402C0220F331F0A94E2F7C8015D
:100DF000028402C0880F991F0A94E2F7822B8C9319
:100E0000CA019C01442737FD4095542F60E472E4E9
:100E10008FE090E00E94920E215030403D832C8361
:100E200088819981FC01EE0FFF1FE80FF91FEE0F7B
:100E3000FF1FEE0FFF1FE951FE4F0084F185E02DEB
:100E4000308388819981FC01EE0FFF1FE80FF91FA5
:100E5000EE0FFF1FEE0FFF1FE951FE4F0284F385D7
:100E6000E02D8C818083FF2011F188819981FC0124
:100E7000EE0FFF1FE80FF91FEE0FFF1FEE0FFF1F12
:100E8000E951FE4F0280F381E02D2081DC0144E036
:100E9000AA0FBB1F4A95E1F7A953BE4F0C9002C0A1
:100EA000000F111F0A94E2F7202B20837894DF9122
:100EB000CF911F910F91FF900895DC018D919C912E
:100EC000AC01440F551FFA01E80FF91FEE0FFF1F89
:100ED000EE0FFF1FE951FE4FA081B181FC0134E00C
:100EE000EE0FFF1F3A95E1F7E953FE4F72812C9107
:100EF00030E0072E02C0359527950A94E2F720FFCF
:100F0000F6CF840F951F880F991F880F991F89515D
:100F10009E4FDC011696ED91FC9117976083089522
:100F2000CF92DF92EF92FF920F931F93CF93DF93B5
:100F30006C01EA018FEF4F3F580739F4EB0109903C
:100F40000020E9F72197C61BD70B7B0100E010E0DA
:100F500008C0F70161917F01C6010E945D070F5F24
:100F60001F4F0C171D07ACF3DF91CF911F910F910D
:100F7000FF90EF90DF90CF900895CF93DF93CDB7A0
:100F8000DEB7C058D0400FB6F894DEBF0FBECDBF5D
:100F90009E0127573F4FCE0101966FE770E0C9577A
:100FA000DF4F48815981C758D0400E941010CB575D
:100FB000DF4F88819981C558D040BE016F5F7F4F58
:100FC0004FEF5FEF0E949007C058DF4F0FB6F894C5
:100FD000DEBF0FBECDBFDF91CF910895DC018D91B3
:100FE0009C91AC01440F551FFA01E80FF91FEE0F59
:100FF000FF1FEE0FFF1FE951FE4FA081B181FC01E1
:1010000034E0EE0FFF1F3A95E1F7E953FE4F64819C
:101010002C9130E0062E02C0359527950A94E2F710
:1010200020FFF6CF840F951F880F991F880F991FF7
:1010300089519E4FDC011696ED91FC9117978081A6
:101040000895CF93DF93CDB7DEB760970FB6F894CE
:10105000DEBF0FBECDBF84E293E065E270E045E005
:101060000E947A0606E010E084E293E00E94A00667
:101070008FEF91EEA4E081509040A040E1F700C0D6
:1010800000000150104081F78AE193E06BE270E0CC
:1010900045E02BE230E006E05BE2E52EF12CE7E0F4
:1010A000CE2E0E9416068AE193E00E9421058AE175
:1010B00093E060E071E00E946B0588E093E065E2F8
:1010C00070E044E025E230E003E0F5E2EF2EF12CA1
:1010D000A2E0CA2EB5E2AB2EB12C882483940E94E4
:1010E000F80288E093E00E942B04AFE3BCE911977B
:1010F000F1F700C0000088E093E00E94180488E047
:1011000093E00E943E04EFE3FCE93197F1F700C061
:10111000000088E093E00E9418048AE293E065E210
:1011200070E040E00E947A0684E193E060E070E0C5
:1011300040E855E221E00E94A70684E093E069E2DE
:1011400070E044E00E94D4008FEF97E8A3E1815063
:101150009040A040E1F700C000008AE193E00E94C7
:1011600021058AE193E066E271E00E946B058FEF52
:1011700097E8A3E181509040A040E1F700C0000053
:101180008AE193E00E94AC058AE193E00E94210588
:1011900003C04F2C5E2C18018AE293E00E94A00647
:1011A00025E0E22EF12CEC0EFD1E00E010E0802F79
:1011B0000E94A101D70111969C938E9385309105D1
:1011C00030F40530110519F011961C921E920F5F34
:1011D0001F4FE2E0F0E0EE0EFF1E0630110539F77A
:1011E0006F8578896531710514F46EE170E06451A2
:1011F000704080EC92E10E947F0E788B6F8784E0D4
:1012000093E00E94E900882309F457C08AE193E043
:101210000E94210500D000D000D0EDB7FEB7319676
:101220002AE133E0ADB7BEB712963C932E931197E7
:101230008AE491E0938382838F8598899583848360
:101240000E947D05ADB7BEB71A970FB6F894BEBF22
:101250000FBEADBFEDB7FEB7319624E133E0129675
:101260003C932E93119784E791E0938382838D853D
:101270009E85958384838F859889978386838B85C4
:101280009C859187808789859A85938782878D81C0
:101290009E81958784878F819885978786870E940E
:1012A000BD07ADB7BEB750960FB6F894BEBF0FBE20
:1012B000ADBFF42CE52C81016CCF8AE193E00E9454
:1012C00021050D851E85EF84F888CB84DC84A984F4
:1012D000BA848D809E806F80788484E093E00E9441
:1012E000E900EDB7FEB772970FB6F894FEBF0FBED8
:1012F000EDBF31962AE133E0ADB7BEB712963C930D
:101300002E931197A1EAB1E0B383A28315830483DE
:10131000F782E682D186C086B386A28695868486C9
:1013200077866686808B118A0E947D051C821B82CF
:101330001A821982EDB7FEB772960FB6F894FEBF07
:101340000FBEEDBFCE010596BE016D5F7F4FAE01B2
:101350004F5F5F4F0E9449020B811C81F980EA8038
:1013600081E090E010C0C801B2010E94C8018FEF77
:1013700096E7A1E081509040A040E1F712C00196AD
:101380008730910539F028163906C9F7021513057B
:10139000B1F7E9CF8FEF91EEA4E081509040A040EB
:1013A000E1F700C00000F5CE0BD0CFC0C0D028F0D0
:1013B000C5D018F0952309F09CC0AFC01124F9C026
:1013C000D5D0A0F3959FD1F3950F50E0551F629FA4
:1013D000F001729FBB27F00DB11D639FAA27F00D8E
:1013E000B11DAA1F649F6627B00DA11D661F829FB5
:1013F0002227B00DA11D621F739FB00DA11D621F9A
:10140000839FA00D611D221F749F3327A00D611DB6
:10141000231F849F600D211D822F762F6A2F112498
:101420009F5750408AF0E1F088234AF0EE0FFF1FEB
:10143000BB1F661F771F881F91505040A9F79E3F22
:10144000510570F056C0B5C05F3FECF3983EDCF339
:10145000869577956795B795F795E7959F5FC1F75F
:10146000FE2B880F911D9695879597F9089511F495
:101470000EF453C044C082D0D0F39923D9F3CEF3F5
:101480009F57550B87FF4CD00024A0E640EA9001FF
:1014900080585695979528F4805C660F771F881FB3
:1014A00020F026173707480730F4621B730B840BB4
:1014B000202931294A2BA6951794079420253125F8
:1014C0004A2758F7660F771F881F20F0261737071F
:1014D000480730F4620B730B840B200D311D411D46
:1014E000A09581F7B901842F9158880F969587951B
:1014F000089597F99F6780E870E060E008959F3F46
:1015000031F0915020F4879577956795B795880FBE
:10151000911D9695879597F908959FEF80EC089512
:1015200091505040660F771F881FD2F7089500240E
:101530000A941616170618060906089500240A9438
:1015400012161306140605060895092E0394000CBE
:1015500011F4882352F0BB0F40F4BF2B11F460FF4D
:1015600004C06F5F7F4F8F4F9F4F089557FD905876
:10157000440F551F59F05F3F71F04795880F97FB57
:10158000991F61F09F3F79F0879508951216130611
:101590001406551FF2CF4695F1DF08C01616170640
:1015A0001806991FF1CF8695710561050894089575
:1015B000E894BB2766277727CB0197F90895A5E123
:1015C000B0E0E5EEFAE00C94B40E4C017F876E8734
:1015D000FC0117821682838181FD04C076C34C858D
:1015E0005D8504C01E010894211C311CF401938107
:1015F000EE85FF8593FD859193FF8191FF87EE87AF
:10160000882309F45EC3853241F493FD859193FFED
:101610008191FF87EE87853259F490E0B4014C8BBD
:101620005D8B0E94E40F4C895D895D874C87D7CF25
:10163000FF24DD2410E01032B0F48B3269F08C32DC
:1016400028F4803251F0833271F40BC08D3239F0BE
:10165000803349F411602CC01260146029C01860F6
:1016600027C0106125C017FD2EC0282F20532A3017
:1016700098F416FF08C08F2D880FF82EFF0CFF0C72
:10168000F80EF20E15C08D2D880FD82EDD0CDD0C56
:10169000D80ED20E10620CC08E3221F416FD11C38A
:1016A000106406C08C3611F4106802C0883659F4F4
:1016B000EE85FF8593FD859193FF8191FF87EE87EE
:1016C000882309F0B8CF982F9554933018F41061FF
:1016D000805E06C0982F9556933008F0A2C11F7EF9
:1016E00016FD02C0E6E0FE2E1F73853611F410646D
:1016F00006C0863611F4106802C0F110FA9417FF84
:1017000007C0FBE3FF1548F0EF2CE39427E00DC082
:1017100027E02F1530F02F2D07C027E07CE3E72EC0
:1017200004C027E067E0F62EEE24CA0104969D87E8
:101730008C87FA016081718182819381A1010E2DD4
:101740000E94EB0E5C01C9802C2D30E0398B288B78
:10175000C0FE03C0388933FF06C011FD06C012FF6A
:1017600006C000E205C00DE203C00BE201C000E0CC
:10177000888999898C709070009709F43CC0002387
:1017800011F084E001C083E08D1558F4D81A13FDE0
:1017900009C080E290E0B4010E94E40FDA94C9F736
:1017A00001C0DD24002329F0802F90E0B4010E94C5
:1017B000E40F888983FD05C03CE6E32E30E0F32E7C
:1017C00011C028E6E22E20E0F22E0CC00115110512
:1017D00009F0805290E0B4010E94E40F0894E11CEB
:1017E000F11C04C0012F10E000711070F70184910A
:1017F000882361F763C217FF0EC0EA0CF889F4FF73
:1018000004C08A81813309F4EA941E144CF528E05F
:101810002E1548F12CC016FD2AC08F2D90E08A1598
:101820009B0544F03CEFA3163FEFB3061CF0106895
:1018300001C0FA94FF2049F0E2E0F0E0EC0FFD1F58
:10184000EF0DF11D80818033A1F317FF10C0EF2C45
:10185000E3948F2D90E0A816B90644F4FA1807C057
:10186000EE24E39404C098E0E92E01C0FF2417FFA2
:1018700007C01A141B043CF495012F5F3F4F05C0AD
:1018800025E030E002C021E030E0002311F02F5FBE
:101890003F4FFF2029F08F2D90E00196280F391F30
:1018A0008D2D90E02817390714F4D21A01C0DD24D9
:1018B000612E7724C30189709070009749F406C0A7
:1018C00080E290E0B4010E94E40FDA94DD20C1F7D9
:1018D000002329F0802F90E0B4010E94E40F63FC04
:1018E00009C006C080E390E0B4010E94E40FDA94DE
:1018F000DD20C1F717FF48C08501B7FE02C000E038
:1019000010E06624772495012E1931093B8B2A8B30
:101910002501401A510A420C531C6F2D70E0EE2431
:10192000FF24E61AF70A3FEF0F3F130729F48EE270
:1019300090E0B4010E94E40FA016B10654F02A8989
:101940003B89201731072CF4F201E60DF71D818148
:1019500001C080E3015010400894611C711C0E15F9
:101960001F052CF090E0B4010E94E40FDCCF0A15B3
:101970001B0541F49A81963320F4953319F4388984
:1019800034FF81E390E049C08A81813311F09FEEFA
:10199000C92290E0B4010E94E40FFF2089F08EE29A
:1019A00090E0B4010E94E40F12E0F101E10FF11D9B
:1019B0001F5F808190E0B4010E94E40FFA94A9F7C0
:1019C00064FE03C085E490E002C085E690E0B401C7
:1019D0000E94E40FB7FC05C0A114B10441F4C4FE99
:1019E00006C0B094A194B108B3948DE201C08BE21B
:1019F00090E0B4010E94E40F80E305C08F5FE6EF42
:101A0000FFEFAE0EBF1EFAE0AF16B104BCF790E0D8
:101A1000B4010E94E40FC501C096B4010E94E40F16
:101A20004DC1833631F0833789F0833509F059C0D1
:101A300022C09A012E5F3F4F3D872C87FA0180819B
:101A4000898381E0E82EF12C510113C09A012E5FA9
:101A50003F4F3D872C87FA01A080B18016FF03C05D
:101A60006F2D70E002C06FEF7FEFC5010E94D90FAC
:101A70007C011F7714C09A012E5F3F4F3D872C8752
:101A8000FA01A080B18016FF03C06F2D70E002C084
:101A90006FEF7FEFC5010E94C30F7C01106813FD3B
:101AA0001CC006C080E290E0B4010E94E40FDA940A
:101AB0008D2D90E0E816F906A8F30FC0F50117FD8B
:101AC000859117FF81915F0190E0B4010E94E40FBE
:101AD000D110DA940894E108F108E114F10471F7E7
:101AE000EDC0843611F0893671F59A0117FF0AC0EE
:101AF0002C5F3F4F3D872C87FA0180819181A28125
:101B0000B3810BC02E5F3F4F3D872C87FA01808148
:101B10009181AA2797FDA095BA2F012F0F76B7FFC5
:101B200008C0B095A095909581959F4FAF4FBF4F3E
:101B30000068BC01CD01A1012AE030E00E943B1009
:101B4000E82EE21841C0853721F41F7E2AE030E0FC
:101B500020C0197F8F36A9F0803720F4883509F02E
:101B6000B0C00BC0803721F0883709F0AAC001C08F
:101B7000106114FF09C0146007C014FF08C016608C
:101B800006C028E030E005C020E130E002C020E1DE
:101B900032E0CA0117FF09C004969D878C87FA01BD
:101BA000608171818281938108C002969D878C87B4
:101BB000FA016081718180E090E0A1010E943B10F8
:101BC000E82EE218012F0F7706FF09C00E7FEF14F1
:101BD00030F404FF06C002FD04C00F7E02C01E2DBB
:101BE00001C01F2D802F90E004FF0CC0FE01EE0D00
:101BF000F11D2081203311F4097E09C002FF06C0C7
:101C00001E5F05C086789070009709F01F5FA02EB8
:101C1000BB2403FD12C000FF0DC0FE2C1D1550F4A7
:101C2000FD0CF11A1D2D06C080E290E0B4010E9467
:101C3000E40F1F5F1D15C0F304C01D1510F4D11A69
:101C400001C0DD24A4FE0FC080E390E0B4010E9437
:101C5000E40FA2FE1FC0A1FE03C088E590E010C003
:101C600088E790E00DC0C50186789070009791F0EC
:101C7000A1FC02C080E201C08BE207FD8DE290E092
:101C8000B4010E94E40F06C080E390E0B4010E941A
:101C9000E40FFA94EF14C0F3EA94F101EE0DF11D94
:101CA000808190E0B4010E94E40FEE20A9F706C005
:101CB00080E290E0B4010E94E40FDA94DD20C1F7E5
:101CC0008ECCF4018681978102C08FEF9FEF6596DD
:101CD000E2E10C94D00EAA1BBB1B51E107C0AA1F66
:101CE000BB1FA617B70710F0A61BB70B881F991FBD
:101CF0005A95A9F780959095BC01CD01089597FB61
:101D0000092E07260AD077FD04D0E5DF06D0002093
:101D10001AF4709561957F4F0895F6F79095819527
:101D20009F4F0895A1E21A2EAA1BBB1BFD010DC0F7
:101D3000AA1FBB1FEE1FFF1FA217B307E407F5077B
:101D400020F0A21BB30BE40BF50B661F771F881F57
:101D5000991F1A9469F760957095809590959B01ED
:101D6000AC01BD01CF0108952F923F924F925F9237
:101D70006F927F928F929F92AF92BF92CF92DF929B
:101D8000EF92FF920F931F93CF93DF93CDB7DEB700
:101D9000CA1BDB0B0FB6F894DEBF0FBECDBF099494
:101DA0002A88398848885F846E847D848C849B84EB
:101DB000AA84B984C884DF80EE80FD800C811B81F9
:101DC000AA81B981CE0FD11D0FB6F894DEBF0FBE28
:101DD000CDBFED010895283008F027E03327DA0160
:101DE000990F311D87FD916000966105710539F4E9
:101DF00032602E5F3D9330E32A95E1F708959F3FCF
:101E000030F080387105610509F03C5F3C5F3D931F
:101E1000913008F08068911DDF93CF931F930F934B
:101E2000FF92EF92192F987F9695E92F96959695A8
:101E3000E90FFF27E653FF4F99273327EE24FF24AE
:101E4000A701E70105900894079428F4360FE71ED0
:101E5000F81E491F511D660F771F881F991F069492
:101E6000A1F70590079428F4E70EF81E491F561FA6
:101E7000C11D770F881F991F661F0694A1F7059053
:101E8000079428F4F80E491F561FC71FD11D880F4D
:101E9000991F661F771F0694A1F70590079420F4F9
:101EA000490F561FC71FD81F990F661F771F881F1E
:101EB0000694A9F784911095177041F0D695C795AF
:101EC00057954795F794E7941A95C1F7E0E7F0E046
:101ED00068941590159135916591959105907FE2E3
:101EE0007395E118F10A430B560BC90BD009C0F7E3
:101EF000E10CF11E431F561FC91FD01D7EF4703325
:101F000011F48A95E6CFE894015030F0080F0AF4F6
:101F10000027021708F4202F2395022F7A3328F088
:101F200079E37D932A95E9F710C07D932A9589F688
:101F3000069497956795379517951794E118F10AC8
:101F4000430B560BC90BD00998F023957E917395DE
:101F50007A3308F070E37C932013B8F77E917061B8
:101F60007D9330F0839571E37D9370E32A95E1F7DB
:101F70001124EF90FF900F911F91CF91DF9199273E
:101F800087FD90950895FC01059061507040011007
:101F9000D8F7809590958E0F9F1F0895FB01DC0167
:101FA0000D900020E9F7119701900D920020E1F7C4
:101FB0000895FC016150704001900110D8F78095A0
:101FC00090958E0F9F1F08950F931F93CF93DF93CC
:101FD0008C01EB018B8181FF1BC082FF0DC02E8124
:101FE0003F818C819D812817390764F4E881F9814C
:101FF0000193F983E88306C0E885F985802F099568
:10200000009731F48E819F8101969F838E8302C059
:102010000FEF1FEFC801DF91CF911F910F9108952E
:10202000AEE0B0E0E6E1F0E10C94C20E8C0186E097
:102030008C831A83098377FF02C060E070E86150E7
:1020400070407E836D83CE010196BA01A9010E9482
:10205000DF0A4D815E8157FD0AC02F813885421706
:1020600053070CF49A01020F131FF80110822E96E9
:10207000E4E00C94DE0EFA01AA27283051F1203159
:1020800081F1E8946F936E7F6E5F7F4F8F4F9F4F0C
:10209000AF4FB1E03ED0B4E03CD0670F781F891F4E
:1020A0009A1FA11D680F791F8A1F911DA11D6A0F1C
:1020B000711D811D911DA11D20D009F468943F91CF
:1020C0002AE0269F11243019305D3193DEF6CF01CE
:1020D0000895462F4770405D4193B3E00FD0C9F794
:1020E000F6CF462F4F70405D4A3318F0495D31FD01
:1020F0004052419302D0A9F7EACFB4E0A695979554
:10210000879577956795BA95C9F700976105710529
:1021100008959B01AC010A2E069457954795379573
:102120002795BA95C9F7620F731F841F951FA01DCD
:062130000895F894FFCFB2
:10213600524F424F446F67202843293230313320B3
:1021460020200A706F636B65746D616769632E6E1C
:102156006574202020002A2053797374656D2052FF
:1021660045414459202A20200A2A2A2A2A2A2A2A8C
:102176002A2A2A2A2A2A2A2A2A00426C7565746F74
:102186006F7468204C696E6B202020200A46726F9F
:102196006E743A2564636D202020202020202020A4
:1021A6002020200020205B462D4C3A256420533AFF
:1021B6003C25643E20462D523A2564204C3A25643F
:1021C60020423A256420523A2564202020205D20B2
:1021D6000025336420253364202533642020200A1B
:1021E60025336420253364202533642042543A2560
:1021F6006420200040145407000500070004000373
:1022060000010002000600070005000700040003A5
:1022160000010002000600C000C100C200C600C5E1
:1022260000C400C000C100C200C600C500C4000052
:00000001FF
